:10000000000004202D260000552600005726000081
:10001000592600005B2600005D260000000000005D
:100020000000000000000000000000005F2600004B
:100030006126000000000000632600006526000025
:1000400081230000F9180000E10E0000672600007F
:100050006726000067260000611F00006726000079
:10006000390E00006726000067260000891B00008B
:100070006726000055210000672600006726000063
:100080007D2100006726000067260000672600002B
:10009000672600006726000067260000672600002C
:1000A000672600006726000067260000672600001C
:1000B0006726000067260000000000000000000026
:1000C00067260000672600006726000067260000FC
:1000D00067260000672600006726000067260000EC
:1000E0006726000067260000672600000000000069
:1000F00000000000672600000000000067260000E6
:1001000000000000000000000000000000000000EF
:1001100000000000000000000000000000000000DF
:1001200000000000000000000000000000000000CF
:1001300000000000000000000000000000000000BF
:1001400000000000000000000000000000000000AF
:10015000000000000000000000000000000000009F
:10016000000000000000000000000000000000008F
:10017000000000000000000000000000000000007F
:10018000000000000000000000000000000000006F
:10019000000000000000000000000000000000005F
:1001A000000000000000000000000000000000004F
:1001B000000000000000000000000000000000003F
:1001C000000000000000000000000000000000002F
:1001D000000000000000000000000000000000001F
:1001E000000000000000000000000000000000000F
:1001F00000000000000000000000000000000000FF
:1002000001F0FF01102A2BDB10F0070F08D010F8C7
:10021000013B013A8B422DD010F0070F42B3F6D1CB
:10022000F0B441EA012141EA014122F007047FF0E4
:1002300000070023F0E80256083C85EA010586EA3B
:10024000010685FA47F5A3FA87F586FA47F6A5FA77
:1002500087F68EB9EED1F0BC01F0FF0102F0070283
:1002600032B110F8013B013A83EA010313B1F8D12E
:100270000020704701387047002D06BF354603380F
:10028000073815F0010F07D1013015F4807F02BF48
:10029000013015F4C03F0130F0BC0138704700BF99
:1002A0009FED077BA0F1080300F1C00208339342E1
:1002B00083ED007BFAD180ED327B7047AFF3008095
:1002C0000000000000000000D0E9323210B5D9086B
:1002D00003F0070341EA4271DB004FF01F0CA3F16A
:1002E0002002C3F120042CFA04F400EBC10E0CFA36
:1002F00002F20CFA03FC50F83130224383EA0C047A
:10030000DEF8043040F831405340CEF80430D0F8E5
:10031000A4309FED057B03F1004380ED327BC0F8F4
:10032000A43010BDAFF3008000000000000000000A
:100330009FED077BA0F1080300F1C0020833934250
:1003400083ED007BFAD180ED327B7047AFF3008004
:100350000000000000000000D0E9323210B5D908DA
:1003600003F0070341EA4271DB004FF01F0CA3F1D9
:100370002002C3F120042CFA04F400EBC10E0CFAA5
:1003800002F20CFA03FC50F83130224383EA0C04E9
:10039000DEF8043040F831405340CEF80430D0F855
:1003A00084309FED057B03F1004380ED327BC0F884
:1003B000843010BDAFF3008000000000000000009A
:1003C0009FED077BA0F1080300F1C00208339342C0
:1003D00083ED007BFAD180ED327B7047AFF3008074
:1003E000000000000000000010B5054C237833B970
:1003F000044B13B10448AFF300800123237010BDF8
:10040000206D002000000000745F010008B5034B60
:100410001BB103490348AFF3008008BD0000000092
:1004200088100020745F0100A3F5803A704700BF78
:10043000154B002B08BF114B9D46FFF7F5FF002120
:100440008B460F461148124A121A11F08AFA0C4BC9
:10045000002B00D098470B4B002B00D09847002072
:10046000002104000D000B4811F014FA00F010F9FF
:100470002000290006F0AEFA00F00EF80000080097
:1004800000000000000000000000042040040020E4
:100490004C6D0020D906000008B5064B044613B188
:1004A000002100F089F9044B1B6803B198472046EE
:1004B00000F09AFBB9070000D8110020002310B506
:1004C0000446C0E90033C0E9043383608181436698
:1004D000C2818361194608225C3011F042FA0D4B4B
:1004E00063620D4BA3620D4BE3620D4B23630D4B17
:1004F00024629C4206D003F16802944202D0D033B9
:100500009C4205D104F15800BDE8104011F031BA09
:1005100010BD00BFDD180100FF18010037190100F0
:100520005B190100A0100020024A0349034811F0A2
:10053000B7B900BF000000207919010010000020A9
:1005400041680C4B994210B5044601D011F014FAE1
:10055000A168094B994202D0204611F00DFAE168DA
:10056000064B994204D02046BDE8104011F004BA71
:1005700010BD00BFA0100020081100207011002045
:1005800010B50B4B0B4C0C4A1A602046002204217C
:10059000FFF794FF04F1680001220921FFF78EFFA5
:1005A00004F1D0000222BDE810401221FFF786BFFF
:1005B000D8110020A010002029050000014811F0EA
:1005C000D9B900BF236D0020014811F0D4B900BF94
:1005D000236D002010B50446FFF7F0FF236A1BB11E
:1005E000BDE81040FFF7F0BF044B2362044B1B68CB
:1005F000002BF5D1FFF7C4FFF2E700BF4105000073
:10060000D811002038B5064D0023044608462B605B
:1006100000F0BCFA431C02D12B6803B1236038BD43
:10062000DC11002038B5074D04460846114600226B
:100630002A601A4600F0B2FA431C02D12B6803B1BB
:10064000236038BDDC11002038B5074D044608464C
:10065000114600222A601A4600F0A8FA431C02D173
:100660002B6803B1236038BDDC11002038B5074D7D
:1006700004460846114600222A601A4600F0ACFAE9
:10068000431C02D12B6803B1236038BDDC1100206C
:1006900070B50D4D0D4C641BA4100026A64209D167
:1006A0000B4D0C4C11F04AFB641BA4100026A64213
:1006B00005D170BD55F8043B98470136EEE755F873
:1006C000043B98470136F2E734040020340400204C
:1006D000340400203804002038B5074D074C641B53
:1006E000A4101CB9BDE8384011F02EBB013C55F8F0
:1006F00024309847F5E700BF380400203C04002070
:100700002DE9F843274D0746286891460E4698463E
:1007100011F030F9244A14683CB9244B1360244A80
:1007200012B11268C3F88820204C63681F2B06DDC5
:10073000286811F020F94FF0FF30BDE8F8832FB39F
:10074000D4F8880068B91B4B002BF1D04FF48470AB
:1007500010F09EFD0028EBD00023C0E94033C4F820
:100760008800636840F8239001229A4000EB8301DF
:10077000D0F800311343C0F80031022FC1F8808057
:1007800002BFD0F804311343C0F80431636828680D
:100790005A1C0233626044F8236011F0ECF8002028
:1007A000CBE700BF5C0000206C120020E0110020AD
:1007B00000000000911201002DE9F74FDFF8AC8036
:1007C0000190D8F80000DFF8A8900F4611F0D2F899
:1007D000D9F8005035B9D8F8000003B0BDE8F04FA3
:1007E00011F0C9B86C68D5F888B0661E013405EB05
:1007F00084040BF1800A002EEDDB4FB1BBF1000F3A
:1008000002D1013E043CF6E75AF82620BA42F8D15C
:10081000696822680139B14216BF00236E60236007
:10082000002AEED06B680093BBF1000F07D0DBF815
:100830000011012303FA06FC1CEA010F09D19047BD
:100840006968009BD9F800209942C1D19542D8D05F
:10085000BEE7DBF804015BF826101CEA000F02D1AA
:1008600001989047ECE708469047E9E75C000020D4
:100870006C12002038B50546002941D051F8043CDF
:100880000C1F002BB8BFE41800F0E0F81D4A1368F5
:1008900033B9636014602846BDE8384000F0DCB826
:1008A000A34208D9206821188B4201BF19685B68F0
:1008B00009182160EDE71A465B680BB1A342FAD92B
:1008C00011685018A0420BD120680144501883428F
:1008D0001160E0D118685B68536008441060DAE783
:1008E00002D90C232B60D6E7206821188B4204BF65
:1008F00019685B68636004BF091821605460CAE727
:1009000038BD00BF7412002070B50F4E0C46316820
:10091000054611B900F02AF930602146284600F05A
:1009200025F9431C03D14FF0FF34204670BDC41C91
:1009300024F00304A042F8D0211A284600F016F94A
:100940000130F2D1EFE700BF701200202DE9F8432B
:10095000CD1C25F0030508350C2D38BF0C25002DC6
:10096000064601DBA94204D90C2333600020BDE810
:10097000F883DFF8D48000F069F8D8F800301C461E
:1009800044BB29463046FFF7BFFF431C044658D1FD
:10099000D8F800402746002F43D1002C4BD02368C5
:1009A0003946304604EB030900F0E0F8814542D1B6
:1009B00021686D1A29463046FFF7A6FF01303AD06C
:1009C00023682B442360D8F800305A6862BBC8F80B
:1009D00000700FE02268521B20D40B2A17D961192E
:1009E000A342256018BF5960636808BFC8F80010AB
:1009F00062514B60304600F02FF804F10B00231DCC
:100A000020F00700C21A1CBF1B1AA350AFE7626890
:100A1000A3420CBFC8F800205A60EBE72346646885
:100A2000AEE73C467F68B6E71A465B68A342FBD157
:100A300000235360DEE70C233360304600F00CF8EF
:100A400094E70560D6E700BF74120020014810F05B
:100A500091BF00BF216D0020014810F08CBF00BF86
:100A6000216D0020B1F90C202DE9F0411607054653
:100A70000C4654D44B68002B02DC0B6C002B48DD79
:100A8000E66A002E45D0002312F480522F68216AB6
:100A90002B6030D0626DA389590705D56368D21ADF
:100AA000636B0BB1236CD21A0023E66A216A2846D5
:100AB000B047431CA38906D129681D292BD82A4A8F
:100AC000CA40D60727D500226260D9042269226075
:100AD00004D5421C01D12B6803B96065616B2F609E
:100AE000B9B104F14403994202D02846FFF7C2FE8F
:100AF000002363630DE001232846B0470246501CE3
:100B0000C9D12B68002BC6D01D2B01D0162B1ED1AE
:100B10002F60002022E043F040031BB21BE00F696E
:100B2000002FF6D093070E6808BF4B690F6018BFFF
:100B30000023A6EB07088B60B8F1000FE9DD216AFE
:100B4000A66A43463A462846B047002808DCB4F96E
:100B50000C3043F04003A3814FF0FF30BDE8F0813B
:100B60000744A8EB0008E7E70100402038B5064D30
:100B70000023044608462B6000F020F8431C02D1F5
:100B80002B6803B1236038BDDC110020024B5822D2
:100B90001A604FF0FF307047DC110020024B5822E2
:100BA0001A604FF0FF307047DC110020024B5822D2
:100BB0001A604FF0FF307047DC110020044A0549ED
:100BC0001368002B08BF0B46184410601846704786
:100BD00078120020506D0020024B58221A604FF00E
:100BE000FF307047DC110020FEE700BF08B506F0BB
:100BF000E5FFBDE8084007F031B800BF00B585B09B
:100C000006F044FF002006F0DBFD00F03BF907F0A2
:100C100099F84FF080534CF6F4613622ADF8081085
:100C20008DF80A20D3F8A8208DF80B200422D3F8E1
:100C3000A43001930DEB020103A810F001FF08227C
:100C40000DEB0201024810F0FBFE05B05DF804FB5D
:100C50009C2B00200148002106F0A8BAA002002029
:100C600010B500F097F90446BFF35F8F06F056FB0E
:100C700000B930BFBFF35F8F2046BDE8104000F0E1
:100C80008DB900BF802803D1024B0022C3F8042590
:100C90000120704700C000400120704730B5144D5E
:100CA000012383B02B6000F0BFF86FF00304241A17
:100CB00003E000F0B9F8C44203D5D5F80031002BA9
:100CC000F7D00B4B0022C3F80021D3F80825D3F846
:100CD0000835920548BF6FEA8353054A48BF6FEA5B
:100CE0009353012101935160019803B030BD00BFBF
:100CF00000C0004070B570B10E46451E002404E0EF
:100D0000A64206D000F0AAF8013415F8010F002819
:100D1000F6D1204670BD0446FBE700BF042800D092
:100D2000704708B5054A13680133136006F014F9DB
:100D300000B908BDBDE8084006F0EEB880120020FA
:100D400000B5134B83B000221A6001F01FFCC0B93C
:100D5000002001F035FC0F4B0F4A93E80300009090
:100D6000ADF804100D48694600F0A6FE60B90121F7
:100D70000A4800F0F3FE094800F0E4FE03B05DF815
:100D800004FB00F0F3FDE3E700F0F0FDEFE700BF48
:100D9000801200209C3601001D0D000094360100D9
:100DA000014B1868704700BF80120020014B186883
:100DB000C00970478012002010B4164B164900225B
:100DC00083B0C3F84021D3F840210192019AD3F8AF
:100DD000102522F00F0242F00802C3F81025D3F8C4
:100DE000082542F00302C3F80825D3F804254FF480
:100DF00080344FF4807022F00302C3F80425C3F856
:100E00000443C1F88001086001221A6003B05DF854
:100E1000044B70470080004000E100E0014BC3F844
:100E20004005704700800040024B01225A64D3F80D
:100E30004405704700800040074BD3F8402102B9B9
:100E40007047002282B0C3F84021D3F840310193AB
:100E5000019B02B006F0AEBA00800040084A82B0A2
:100E6000C2F81C05D2F81C31002BFBD00023C2F8BD
:100E70001C31D2F81C310193019B02B0704700BFB6
:100E80000020004010B4144B144C4FF0A04100223D
:100E9000032083B0C3F80025C1F818074020C1F82B
:100EA0000805C1F8202708200621C3F82445C3F807
:100EB0006C25C3F81405C3F80C15C3F81C21D3F82E
:100EC0001C210192019804210122C3F800159A60A7
:100ED00003B05DF8044B70470020004000E0D701EC
:100EE000074B002282B0C3F80821D3F808210192F1
:100EF000019A044AD3F818051368C0B202B0184723
:100F000000200040841200204FF0A0434FF4F03145
:100F10000022C3F80815C3F80C25704700B50F4A26
:100F200007CA85B001AB83E807000D49184601F0F8
:100F30003BF948B90B4801F071F960B90A4B01223D
:100F40001A7005B05DF804FB00F010FD054801F0D3
:100F500065F90028F2D000F009FDEFE7A4360100A2
:100F6000090F0000256D0020246D0020024B1B7826
:100F700003B9704701F044B9246D0020034B1B787E
:100F800003B97047024B187801F06EB9246D002048
:100F9000256D0020EFF3108072B6704780F3108843
:100FA000704700BF00F01F0301219940C0F34710B4
:100FB00006F0E6BD08B500F08BFE00B108BDBDE847
:100FC000084000F039BE00BF30B583B0154602239B
:100FD0008DF8063005F00C03002201F01F01082BEC
:100FE000ADF8042041EA401426D00C2B1AD0042B73
:100FF00002D101238DF8043015F0030306D0022B33
:101000001ED0012B04BF03238DF805300E4A01A921
:10101000204600F067FE2B0608D4204600F066FF4D
:1010200003B030BD03238DF80430E5E701212046ED
:1010300000F0E8FE03B030BD02238DF80430DBE79A
:1010400001238DF80530E1E7A50F000001F01F0135
:1010500041EA40101F28CABF054B4FF0A04300F0E3
:101060001F00D3F8103523FA00F000F0010070479C
:1010700000030050024B0022C3F8FC2F01207047F0
:101080000010004091B118280ED8DFE800F01B11C5
:101090000D0D6D64605C443F3B0D0D0D3835322FF6
:1010A0000D2C292623201D000120704702207047A7
:1010B000324B334AD3F80835A2FB03239B080A338B
:1010C000DBB20B60002070477D230B60FAE7002342
:1010D0000B60F7E710230B60F4E70A230B60F1E7DE
:1010E00020230B60EEE703230B60EBE708230B6084
:1010F000E8E7D8230B60E5E71A230B60E2E70B2350
:101100000B60DFE71F4B1B780B60DBE71E4B93F98F
:1011100000300B60D6E7194A012382B05361D2F840
:101120001C31002BFBD00023C2F81C31D2F81C313B
:101130000193019BD2F8483503F07F035B42002006
:101140000B6002B07047114B5B790B60BAE70F4B35
:101150005B780B60B6E70D4BDB7800220A60002B52
:10116000B0D001230B60ADE7084B1B7800220A606A
:10117000002BA7D004230B60A4E700BF00100040A1
:10118000CDCCCCCC266D0020276D0020BC010020EA
:101190000120704730B583B0FFF7FCFEBFF35F8FCF
:1011A0001D4B1B78ABB11D4B1D4902224FF0FF3484
:1011B000C1F80843C3F88021C3F88020BFF34F8FE4
:1011C000BFF36F8FBFF35F8F03B0BDE83040FFF711
:1011D000E5BE03F0FF02124B1049C3F83021D3F8EB
:1011E00030410194019CC3F83421D3F8342100929A
:1011F0004FF0FF34009DC3F8084302224FF44054DF
:10120000C1F88021C3F804430A60BFF35F8F03B0C5
:10121000BDE83040FFF7C2BEBC01002000E100E0A5
:1012200000100040154BD3F8FC0F30B1D3F8502517
:10123000D2B2032A02D000207047704710B4104C7D
:10124000104922780978053AD2B201F0FF0051B175
:101250007A2A11D8D3F8302172B9D3F83401B0FA10
:1012600080F0400905E07A2A03D894F8800080F0E5
:1012700001005DF8044B70470020FAE700100040C1
:1012800088120020BC010020074A1378053B7A2B06
:1012900008D8064BD3F8303113B992F88000704764
:1012A0000120704700207047881200200010004085
:1012B0000C2801D001207047042A05D121B1034B2D
:1012C0001B680B6000207047022070478C130020C1
:1012D00070B51B4CD4F85055EDB2032D82B02AD016
:1012E000184B194A1949C4F80415C3F8102502F51A
:1012F000DE421432C3F8142501264FF00062C3F811
:101300000465C3F80425FFF745FFD4F8003243F025
:101310001003C4F80032D4F80032022D43F4002345
:10132000C4F8003209D00023C4F85831D4F8583139
:101330000193019B666002B070BDA66002B070BDF3
:101340000010004000F001403811004088120020D9
:1013500070B5314B314D002484B0C3F83841D3F817
:1013600038210092009AC3F80C41D3F80C21019265
:10137000019AC3F83441D3F834210292029AC3F897
:101380003041D3F830312A780393039B531F7A2BD3
:1013900038D8941E2246691C10F052FB2B195B783A
:1013A0003F2B2DD89B00DBB21D4E1B4A3370D2F869
:1013B00048151C4B01F07F01494249B219700420C5
:1013C00089B207F0A9F93178032007F0A5F9164B87
:1013D0002A7816491A74D1F84C055860D1F8481586
:1013E00099605200DA6059680C480239196081220C
:1013F000002110F0B6FAFFF76BFF204604B070BD75
:10140000FF23D1E781222146284610F0AAFAFFF7F0
:101410005FFF204604B070BD00100040881200201D
:10142000266D0020276D00208C13002000800040D6
:101430007D2910B50C4609D801460A48A31C00F8BE
:10144000013B224610F0FCFA002010BD064A074975
:10145000074807F0CBFD7D222146064807F0C6FD70
:10146000012010BD0C130020601E0100701E010041
:10147000741E0100841E010010B5264C264A0F235D
:1014800084B0C4F8103593780A3B03EB8303C4F8A7
:1014900008351179D079937952791B0643EA0023F4
:1014A0000B4343EA024300211C48C4F86C3640F267
:1014B0000222C4F83425C4F838050D22C4F83C15BE
:1014C000684610F04EFA9DF807309DF801009DF82F
:1014D00002105B0743EA002343EA01439DF804102E
:1014E00043EA815343F0C06343F00803C4F8143562
:1014F0009DF80A309DF809101B0443EA012340F2CD
:10150000012243F07F03C4F81835C4F8502604B014
:1015100010BD00BF00100040BC01002021100100E0
:1015200008B5084BD3F8FC2F1AB1FFF7D1FE012004
:1015300008BD0122C3F8FC2FFFF79EFFFFF7C8FE8E
:10154000012008BD0010004010B51C491C4C1D486E
:101550004FF08042002382B00B6023704B60037019
:101560008B60CB600B74C2F80031D2F8003100936D
:10157000012300991360D2F80031002BFBD0002426
:10158000C2F80041D2F80031019321460E48019B78
:1015900005F00CFE214681220C4810F0E2F90C4BBC
:1015A0000122C3F8FC2FFFF767FF0A4A1378DBB26A
:1015B0001370FFF7EFFD204602B010BD8C13002022
:1015C000276D0020266D0020C40100208812002015
:1015D00000100040BC01002000B51B4BD3F8FC2FCD
:1015E00085B052B3FFF774FE174B0022C3F84821B1
:1015F000D3F8481103910399C3F84421D3F8441157
:1016000002910299C3F84C21D3F84C210192012296
:101610000199DA6202E0D3F844211AB9D3F84821DB
:10162000002AF8D0084BD3F84801D3F84431B0FA77
:1016300080F0400905B05DF804FB0122C3F8FC2FDF
:10164000FFF71AFFCEE700BF0010004010B5038877
:10165000044683B140F2C932934203D1822905D0B6
:10166000012010BD00230380032010BD114A137810
:10167000053B7A2B03D940F2C9332380F0E70E4BA8
:10168000D3F830311BB992F88030002BF3D0FFF73C
:1016900075FC06F023FF06F0EDFF8021FFF758FEF2
:1016A0000028E8DD80B206F0DFFF044BDB689847D6
:1016B000E1E700BF8812002000100040305D01000B
:1016C00010B57D2884B05AD8334BD3F8FC2F002AAC
:1016D00049D0324CFFF7FCFDE378002B3DD1637815
:1016E0002D4ADBB20121C2F80C35D160D2F8503559
:1016F000DBB2022BFAD100232949C2F80415C2F843
:101700000C31D2F80C1101910199C2F86C31D2F868
:101710006C1102910299C2F85431D2F854310393FA
:10172000039BD2F80032012143F48023C2F8003237
:101730001160FFF779FB6FF00204241AFFF774FBC6
:10174000E042FBD4144AD2F85035DBB20B2BFAD06E
:10175000FFF7BEFD002004B010BDFFF73DFF0028DD
:10176000BDD10220F7E701220C4CC3F8FC2FFFF794
:1017700083FEFFF7ADFDE378002BB0D0EDE7094A1B
:1017800009490446094807F031FC2146084807F09A
:101790002DFC012004B010BD00100040BC01002051
:1017A0000C130020601E0100701E0100741E010059
:1017B000A01E01007D2910B50C460CD801460D482D
:1017C000A31C224600F8013B10F03AF92046BDE880
:1017D0001040FFF775BF084A0849094807F006FCA2
:1017E000214608487D2207F001FC2046BDE8104054
:1017F000FFF766BF0C130020601E0100701E010081
:10180000741E0100841E010008B507280FD8DFE808
:1018100000F010180E0E44333904354B3548C9B268
:101820005971D0F8FC2F002A42D1002008BD0120B8
:1018300008BD01294CD0002938D12E4BC3F8FC1F1C
:10184000F3E7A1F10B030F2B30D8294A294BC8B27B
:101850009070D3F8FC2F002AE7D00A39002201EB60
:101860008101C3F8FC2FC3F80815D3F8FC2F002A18
:1018700038D0FFF72DFDD8E7012917D81C4BC9B286
:10188000D970D2E71A4A1B4BC9B25170D3F8FC2F5A
:10189000002ACAD0C3F80C15C7E7072906D8144B8D
:1018A000C1F380011970FFF775FCBEE7022008BD87
:1018B00093F804C093F807E09A795979130643EA3C
:1018C0000E2343EA0C0343EA0143C0F86C36ACE74D
:1018D000084BD3F8FC2F002ACBD1C3F8FC1FFFF72D
:1018E000CBFDC6E70122C3F8FC2FFFF7C5FDC0E71B
:1018F000BC01002000100040184B1B7803B170475A
:1019000000B503F0FF02164BD3F8301183B029B9AC
:10191000D3F8342192B903B05DF804FBC3F8302149
:10192000D3F8302100920F4B00990F48012283F821
:10193000802003B05DF804EB05F02CBDC3F8341132
:10194000D3F83431019381220648019B10F009F845
:1019500003B05DF804EBFFF7BBBC00BFBC01002087
:101960000010004088120020C401002000B585B09E
:101970000346002101AA44F20100CDE901110393BD
:1019800000F004F805B05DF804FB00BF72B6094B27
:10199000D3F8F030DB0700D500BEBFF34F8F054909
:1019A000054BCA6802F4E0621343CB60BFF34F8F6C
:1019B00000BFFDE700ED00E00400FA0572B6024A40
:1019C0001368013313607047A0130020034A1368A3
:1019D000013B136003B962B6704700BFA01300203B
:1019E000044A137923B90121106091801846704789
:1019F00085207047A4130020084B1A68D20707D52A
:101A0000074A4FF080410123C1F818351370704721
:101A1000C02283F8002301221A60F1E700E100E010
:101A2000286D00204FF08043002282B0C3F80421CB
:101A3000D3F804210192019802210122C3F8041372
:101A40009A6002B0704700BF10B54FF0804382B07B
:101A5000D3F8002162B10021164AC3F80011D3F86F
:101A60000011507900910121009CC3F80813A8B11E
:101A70004FF08043D3F80421CAB10022C3F80421F7
:101A8000D3F80421019202210A4A0198C3F80813ED
:101A90001368012002B0BDE8104018471368517167
:101AA00098474FF08043D3F80421002AE5D102B0D3
:101AB00010BD00BFA413002030B41E4C437944F87D
:101AC00023201D4C03EB4303E35C83BB8A7890F92E
:101AD00004305201002BD2B224DB03F1604303F542
:101AE000614383F8002390F90430002B09DB134D88
:101AF0004FEA531C012203F01F0302FA03F345F8D7
:101B00002C3003680A88C3F8082543790879C97816
:101B100003EB4303E21850700120E0549170002061
:101B200030BC7047064D03F00F03EA54DBE7082092
:101B300030BC7047B0130020AC13002000E100E07F
:101B400014ED00E00368044A01211960437903EBB6
:101B500043030221D1547047AC13002010B4036832
:101B6000002483B0C3F80041D3F800410368019416
:101B70000122019CC3F8442311B10368C3F8042374
:101B800003B05DF8044B70472DE9F041274E284F14
:101B9000DFF8A08084B000244FF48035D6F80433F9
:101BA0002B4211D057F824300022E0B263B1C6F8BE
:101BB0004853C6F8085347F8242057F824200392C6
:101BC000D8F80030039A98470134032C4FEA4505B2
:101BD000E4D1164BD3F80423D10702D5D3F8002162
:101BE000C2B9124BD3F80423920710D5D3F80421BD
:101BF0006AB10022C3F80421D3F804210D4B0192ED
:101C0000019A1B68052004B0BDE8F041184704B0F4
:101C1000BDE8F0810022C3F80021064AD3F8003164
:101C2000029304201368029A9847DAE700B0004054
:101C300040B10040B013002030B5214C94F86A3018
:101C400083B0002B38D104F1300304F160014FF070
:101C5000FF3243F8042B8B42FBD1194A002302F1D7
:101C600058004FF0FF31072B42F8041B04D8013312
:101C7000072B42F8041BFAD9C15401330C2BF2D1C3
:101C8000062200210F480FF06CFE0F4BC02283F894
:101C9000062340221A600D4B0020C3F87C01D3F8C4
:101CA0007C210192019D4FF00042012184F86A10CD
:101CB000C3F8042303B030BD082003B030BD00BF1B
:101CC000B41300201814002000E100E00060004080
:101CD000034B93F86A00003818BF0120704700BF1B
:101CE000B4130020F0B5444D2B1893F93030002B7D
:101CF00001DB0820F0BD8E78C6F34006002E14BF2D
:101D00000023082303F1804C0CF1FF3C05EB8C0C05
:101D100014BF4FF0080E4FF00C0E02E001339E4549
:101D20003ED95CF8044F0134F8D12C1845F8232033
:101D30005AB284F8302016B9EC1884F858008C7820
:101D400067071ED4E60747D51F2887BF2B4C00F036
:101D50001F0606464FF0A04404EB8604D4F8006743
:101D600026F00206C4F80067254FC60800F0070EEB
:101D700017F806C0012404FA0EF444EA0C04BC551A
:101D80008C780978A4070DD4A2F1080345FA83F3EF
:101D900093F8602042EA811283F860200020F0BDB1
:101DA0000420F0BD9B0003F1804303F5C043020211
:101DB000D3F8100520F44F3020F44070C3F810051C
:101DC0000904D3F8100502F47C5201F440310A43AF
:101DD0000243C3F81025E1E71F284E7887BF074F5D
:101DE00000F01F0404464FF0A04704F5E074B6006D
:101DF00047F82460B8E700BFB41300200003005088
:101E00001814002030B4364C04EB000C82B09CF95E
:101E10003030072B10DD234493F858309B09032BF7
:101E200033D0012B0CBF4FF400324FF440321F2847
:101E300047D84FF0A04334E0DAB2072A22D89800FE
:101E400000F1804000F5C04003F14002D0F8105589
:101E5000920092B202F1804245F00105C0F810559F
:101E600002F5C042002001901060019A51B19CF926
:101E7000302054F822202AB11A49012202FA03F331
:101E8000C1F8043302B030BC70471F281DD84FF092
:101E9000A0421346D2F81025C24002F001020232DD
:101EA000120403EB8003D3F8001721F44031C3F888
:101EB0000017D3F800170A43C3F8002702B030BC5C
:101EC000704700F01F00084BEBE7074BD3F81025D5
:101ED00000F01F00C24002F0010202321204F2E7D9
:101EE000B41300200060004000030050194B03446D
:101EF00093F93030072B18DCDAB2072A14D810B463
:101F00009A0002F1804202F5C042134CD2F810054B
:101F1000012120F0010001FA03F3C2F81005C4F812
:101F200008335DF8044B704770471F2886BF0B4B82
:101F300000F01F004FF0A04303EB8003D3F800270D
:101F400022F44032C3F80027D3F80027C3F8002753
:101F5000704700BFB4130020006000400003005031
:101F60002DE9F04F0022164689B0CDE90222724BCE
:101F7000724C73480122354604E0043383424FEA31
:101F8000420211D019680129F7D1D4F80413114283
:101F9000F3D01D60196800910433834246EA0206BB
:101FA00000994FEA4202EDD1644BD3F87C1101292C
:101FB000F2B220D0D2B1634F01250024A30003F177
:101FC00080432E4203F5C0430BD0D3F8100557F8D9
:101FD0002420D3F81015C0F30520C1F3014102B14C
:101FE00090470134082C4FEA4505E7D1002E15DB58
:101FF00009B0BDE8F08F0021C3F87C11D3F87C3123
:1020000001934FF0A041019BD1F810154E4B029166
:10201000D3F810350393002A40F08B8000224B4DFB
:10202000CDE904224FF0FF330693A5F16308484C35
:1020300007934FF00009012614F9013F5A1C32D0D2
:10204000C3F3C20E0EF120020DEB020C03F00702E7
:102050001CF8087C06FA02F21742D9B203F03F00DE
:1020600021D008EB0007890997F9307058F82770DC
:10207000002F4CD003294CD01F288BBFDFF8C8E0BD
:102080004FF0A04E03F01F0303460EEB83031CF832
:1020900018ECD3F800C71EEA020FCCF3014C1AD09B
:1020A000BCF1020F40D0AC42C6D1B9F1000F9FD0B5
:1020B0004FF0A0430299D3F81035234A9942D2F841
:1020C000102502D10399914292D0CDE90232DDE987
:1020D00004230692ABE7BCF1030FE4D1032903D03C
:1020E000002FE0D0B847DEE74FF4003CD3F80027DC
:1020F00022F44032C3F80027D3F8002709F1010980
:1021000042EA0C025FFA89F9C3F80027E8E70329DD
:10211000C9D10DF1100B0DF1100A1BF80EB04BEAEE
:10212000020B0AF80EB0A7E70329D9D14FF4403CBF
:10213000DCE746F000463EE70061004000600040FA
:1021400020610040B4130020000300501714002049
:1021500013140020074B002282B0C3F80021D3F8EB
:1021600000210192019A044AD3F808051368C0B20D
:1021700002B0184700D000402014002010B5084CD1
:10218000D4F8003182B04BB1064B1B68984700234E
:10219000C4F80031D4F800310193019B02B010BDA6
:1021A000000001402414002070B5114B114A1D7825
:1021B0001160DDB9104E027801211970C6F80C25A6
:1021C000416804464FF47A720023C803490C0EF0AC
:1021D0005DFEC6F80405237A084A5B01DBB282F88B
:1021E00010334FF480331360284670BD082070BD53
:1021F0002A6D0020241400200000014000E100E0CE
:10220000044B054901220220C3F804231A60087018
:10221000704700BF000001402A6D002010B5044641
:102220000020FFF7CBFB0E4A1378072B11D80D497E
:102230002370581C1070D1F80805012202FA03F32C
:102240000343C1F8083500240020FFF7BFFB2046F8
:1022500010BD04240020FFF7B9FB204610BD00BFCD
:10226000296D002000000140034B044A00F5C070B6
:1022700043F82020704700BF000001403546526EF1
:1022800010B54FF0804386B0D3F80443620703D5FE
:10229000D3F80821002A62D1A30605D54FF0804368
:1022A000D3F81421002A4FD1600605D54FF08043A2
:1022B000D3F81821002A3BD1210604D54FF08043E2
:1022C000D3F81C214ABBE20504D54FF08043D3F874
:1022D0002021B2B9A30512D54FF08043D3F82421B1
:1022E0006AB10022C3F82421D3F82421214B05929E
:1022F000059A1B68022006B0BDE81040184706B0DA
:1023000010BD0022C3F820211A4AD3F820310493CB
:1023100001201368049A9847DCE70020C3F81C01E9
:10232000144AD3F81C3103931368039A9847CAE7F9
:102330000022C3F81821104AD3F818310293012063
:102340001368029A9847B7E70020C3F814010A4AB5
:10235000D3F8143101931368019A9847A4E7002237
:10236000C3F80821054AD3F8083100931368009A8E
:10237000984791E7281400202C14002030140020E6
:1023800008B5FFF77DFFBDE80840FFF75DBB00BF64
:1023900010B44FF080414FF080530020C1F80C0181
:1023A0005E4AC1F81001C1F83805D3F80404C2F838
:1023B0002005D3F80804C2F82405D3F80C04C2F8A9
:1023C0002805D3F81004C2F82C05D3F81404C2F879
:1023D0003005D3F81804C2F83405D3F81C04C2F849
:1023E0004005D3F82004C2F84405D3F82404C2F809
:1023F0004805D3F82804C2F84C05D3F82C04C2F8D9
:102400005005D3F83004C2F85405D3F83404C2F8A8
:102410006005D3F83804C2F86405D3F83C04C2F868
:102420006805D3F84004C2F86C05D3F83001D3F83E
:102430004444C2F87045082824D04FF08043D3F8B4
:102440000024D20744BF6FF00102C3F80024344ACD
:10245000D2F8883043F47003C2F88830BFF34F8F4E
:10246000BFF36F8F4FF01023D3F80022002A24DB34
:10247000D3F80432002B20DB2A4B2B4A1A605DF87C
:10248000044B7047D3F83421002AD6D12748284A74
:10249000284CC0F88C46FB20C2F81805D1F8E42E71
:1024A000D3F858422448134664F303034FF40072F0
:1024B000C1F8E43EC0F84026BFE7204A0123C2F835
:1024C0000435D2F80034002BFBD04FF0102312213A
:1024D0001A4AC3F80012D2F80034002BFBD04FF098
:1024E00010231221154AC3F80412D2F80034002B2D
:1024F000FBD000231149C2F80435D1F80034002B79
:10250000FBD0BFF34F8F06490D4BCA6802F4E0625F
:102510001343CB60BFF34F8F00BFFDE700C0004007
:1025200000ED00E0D40100200090D00300500040F6
:1025300000F00040488103000090024000E00140AC
:102540000400FA0510B580B1012800D010BD0E4C72
:102550002369A070002BF9D01A6822615B68012002
:1025600098472369002BF7D1F0E7074CA3680122B5
:102570006270002BEAD01A68A2605B68002098475E
:10258000A368002BF7D110BD3414002038B50A4CD5
:10259000237813B18525284638BD08486360A360B9
:1025A0002361E360FFF71CFA0546FFF725FA0123D4
:1025B0002370284638BD00BF341400204525000094
:1025C00038B5194DAB78044673B110B1436801209A
:1025D00098470020FFF7F2F9EB680133EB60BDE8A4
:1025E00038400020FFF7F2B903F0FF00FFF7E6F9EB
:1025F00064B12A6942B1944208D0134601E09C427A
:1026000004D01B68002BFAD122602C61EB683BB12F
:10261000EB680133EB60BDE838400020FFF7D6B926
:10262000FFF700FAF4E700BF341400200649074A18
:10263000074B9B1A03DD043BC858D050FBDCFFF767
:10264000A7FEFDF7F5FE0000F85F01000000002086
:1026500040040020FEE7FEE7FEE7FEE7FEE7FEE7B8
:10266000FEE7FEE7FEE7FEE72DE9F04F131F914678
:1026700002F56F7483B0002243F8042FA342FBD10C
:10268000304FDFF8C8A0064600221FFA82F84FF04C
:10269000000C934604E00CF1020CBCF1F00F40D0AA
:1026A0004A8808EB0C039BB29A42F4D92648019160
:1026B000624600F1080E00240025A7FB0213DB0987
:1026C000C3EB0313A2EB031330F9021B36F81330EC
:1026D000704502F10102C1FB8345EED1002D019945
:1026E000B5BF53464FF480434FF0FF3000201B1915
:1026F00040EB05058A880C89DB0B53EA45434FEA1A
:10270000620016D5C01AB0FBF2F040426442844227
:10271000B8BF044649F82C400CF1020CBCF1F00F94
:10272000BED15A4609F1040906F5F0763AB90122FC
:10273000ABE70344B3FBF2F0A042EBDCE6E703B007
:10274000BDE8F08F898888881437010000C0FFFF3A
:102750002DE9F04F9BB003290C46904601461D46DB
:102760004FF0200201A828BF00240FF069F9002DC6
:102770003AD0254B50266FF0030216FB04260024A6
:102780001E44A346242301AA40210AA8CDF824B060
:1027900001F0F0FDA5420BF1010B25D9C4EB44700B
:1027A0000AAB03EBC00008EB440204F1080E00F191
:1027B000040C5CF8343050F834A003F00103B14647
:1027C000002102E00131132911D059F8047F574547
:1027D000F8D389B203B161B9013409B2744522F862
:1027E000021B0DD0A542E4D11BB0BDE8F08F002B39
:1027F000F2D04942013409B2744522F8021BF1D1EA
:10280000A542BFD8F0E700BF1C370100F0B5E7B024
:102810000C46054616460021882210A81F460FF0D8
:10282000A0F8882C39D82946224610A80FF008F9BC
:1028300032AD10A8046884F0363440F8044BA84246
:10284000F8D12846FDF7BCFD882210A9284601F0E2
:1028500019FE3A463146284601F014FE29466846DC
:1028600001F016FE10AC236883F06A3344F8043B91
:10287000AC42F8D12046FDF7A3FD10A920468822DE
:1028800001F000FE20226946204601F0FBFD6C9815
:10289000214601F0FDFD67B0F0BD2246294608A89B
:1028A000202401F02BFE0DEB0405BCE72DE9F04FD1
:1028B000ADF2544D064617460D4601924349DDF8E8
:1028C0007844092203A898460FF0BAF8314620222E
:1028D0000DF115000FF0B4F8294620220DF1350056
:1028E0000FF0AEF8394618220DF155000FF0A8F898
:1028F000374F384E4FF00009A4F1040A0DF1700B68
:10290000019A09F0070352F8233087FB0312DC1702
:10291000C4EBE23404EB04441C1BE517002C03DA7F
:1029200014F1011445F100054FF478715846622303
:1029300003AA8DF86D9001F01DFD002108465BF89B
:102940000120A6FB02C31B0C043103EB0343B2F1CD
:10295000FF3F00F1010E89B2A2EB0302EFD058F85D
:1029600020C01FFA8EF087FB0C3E4FEAEC73C3EBDE
:10297000EE3303EB0343ACEB03034FEAE37C002BA2
:1029800003DA13F101134CF1000CA3FB023E1B19F7
:1029900002FB0CEE4EEB050E13EB0E0343F10003AE
:1029A000A6FB0324240C04EB0444F028A3EB04044A
:1029B0004FF00005C3D109F10109B9F1100F4AF830
:1029C000044F9DD10DF2544DBDE8F08FD41E01008F
:1029D0000180FF7F0100FFFF70B5164C0E461546C3
:1029E000A0F1040CA2F1040E00F56F715CF8043F35
:1029F00084FB0302D817C0EBE23000EB00401B1A47
:102A000001D513F101138C454EF8043FEED10A496C
:102A1000321F05F56F753C3652F8040FA1FB0043D9
:102A20001B0C03EB0343C01AB24245F8040FF3D169
:102A300070BD00BF0180FF7F0100FFFF2DE9F84F4F
:102A400004460D46002A3ED1DFF88890A5F1020821
:102A50004FF0000B05F5FF75C446A9F50060494627
:102A60005A460FE00F684E6817EB0E0743EB06035C
:102A7000C1E900730132654592B201F1080100F12C
:102A8000080013D03CF9023F27684FEAE37AFF2A97
:102A9000A7FB03E307FB0A33E4D907684668B7EBF3
:102AA0000E0766EB0303C0E90073E3E70BF10106D1
:102AB0001FFA86FBBBF5807F09F1080904F10404C5
:102AC000CAD1BDE8F88F4FF40062002101480EF032
:102AD00048FFB9E7400400202DE9F04F99B01446B3
:102AE0008A4620221946804605A8DDF888B0DFF81E
:102AF0007C91544F0EF0A4FF534A4FF4407321468B
:102B000005A8FFF725FE9DF81410504A81F05101E9
:102B10004FF440738DF8141005A82146FFF718FEF6
:102B20009DF814304A4A83F0A303214605A88DF886
:102B300014304FF48073FFF70BFE464B4649CDF837
:102B400088B00026ABF1040003F5FF65CDF80CA0BA
:102B5000B3463D4ECDE901B15FFA8BFA00248346BE
:102B6000092249460DA80EF06BFF202241460DF1C7
:102B70003D000EF065FF2B230DAA4FF4806138460F
:102B80008DF85D408DF85EA001F0F4FBA2B2B2FAC0
:102B900082F23146520938460134FFF74FFF032CC9
:102BA00006F50076DCD102992C4A5846DDF804B0CF
:102BB000064602F108048C4652F8083F3CF902EF41
:102BC000AA42734446F8043FF6D10BF1010BBBF166
:102BD000030F01F5007100F58060BAD11A49DDF8E4
:102BE0000CA0DDF888B0012208F12000FFF726FFD5
:102BF0001B49002208F58460FFF720FF194908F5FA
:102C000002600022FFF71AFF124B1749AAF1040ACB
:102C10000BF6FC3B03F500665AF8043F54F8080B2A
:102C200031F9022FB3F5004F88BFA3F10113C3EBB5
:102C3000034302441344B4424BF8043FECD119B0AF
:102C4000BDE8F08F4814002048200020481A0020DA
:102C50004818002040040020461A002038040020B4
:102C6000482200204824002046180020E01E0100D1
:102C70002DE9F84F0D460446014616462846012226
:102C8000FFF7DCFE04F5007105F580600022FFF718
:102C9000D5FE04F58061214CDFF888B005F50060B1
:102CA0000022FFF7CBFE4FF0000905F6FC35043E8D
:102CB00004F5006A47F6FF776FF4803812E0C01918
:102CC00049EB0903C31843F10003ABFB0312D20B1A
:102CD000C2EB02429B1AC01AA0FB0803544546F8F7
:102CE000040F16D054F8081B55F8040F0C4A401A6C
:102CF0004FF0FF33E3D5381A2CBF012100210EF02D
:102D000075F8014307D010F10110544546F8040F3F
:102D1000E8D1BDE8F88F0020E0E700BF40040020C4
:102D20000100FFFF0180008070B50D4B0D481B783E
:102D3000006882B015460C460B4A00904021284698
:102D400006F07AF932210646204603F0E9FD26EA2C
:102D5000E6722946204602B0BDE8704003F030BE5E
:102D60004A6D0020086D0020EC1E010010B4094AD5
:102D70006846602888BFADF16000131D984206D3F5
:102D8000054C11461A46043398420C60F9D25DF89E
:102D9000044B7047506D00205AA55AA50648074AB3
:102DA000904207D2064902E00430904202D2036802
:102DB0008B42F9D0101A7047506D0020000004209B
:102DC0005AA55AA500487047506D00002DE9F04FF4
:102DD000BFB0036806934368079383680893C3688A
:102DE0000993354B009303690A93436902938369FE
:102DF0000B93C3690C93036A0D93436A0393836A2D
:102E00000E93C36A0F93036B1093D0E90D320492B3
:102E1000C26B1192026C1292426C1392826C1492E9
:102E2000C26C1592026D1692426D1792826D1892C5
:102E3000C26D0592026E1992426E1A92826E1B92B8
:102E4000C26E1C92026F1D92426F1E92826F1F9281
:102E5000D0E91FA22092D0F884202192D0F88820B7
:102E60002292D0F88C202392D0F890202492D0F88F
:102E700094202592D0F898202692D0F89C20279272
:102E8000D0F8A8202892D0F8AC202992D0E92C21A3
:102E90002A91D0F8B8102B91D0F8BC102C91D0F812
:102EA000C0102D91D0E92897D0F8C4102E913D90F4
:102EB0009B46904602E000BF581D01000E9A069BFB
:102EC00016981F9C079D0F9E534043406340179ADE
:102ED0000898109C83EA09032F9385EA0603534060
:102EE00083EA0A0383EA0706189D209A309680EA4F
:102EF0000406099C2898219B6E40059D84EA0B0CD2
:102F000056404640299A0A98049C8CEA050C8CEAA3
:102F1000030C199D229B8CEA020C80EA0401029AA0
:102F2000119869401A9D82EA00045940239B2A9A0D
:102F30000B986C40129D5C401B9B544081EA080139
:102F400080EA0502249801915A402B9D0C9B15990B
:102F500042406A40139D25985D401C9B5D402C9B20
:102F600045405D400D98149B43401D984340269872
:102F700043402D984340039848401E994840279964
:102F800048402E994FEA4C0E48404EEAD67E8EEAD3
:102F9000000E8EEA07073197079F17998EEA0707F9
:102FA00007970F9F8EEA07078EEA01013397770094
:102FB000179147EADC7716995F408EEA0A0ECDF842
:102FC000E4E087EA010E0699CDF83CE087EA090EB5
:102FD000CDF858E087EA010E0E99CDF818E087EA9F
:102FE000010E1F99CDF8C8E087EA010ECDF8E0E0A8
:102FF0000199670047EAD17730994F40219987EAD4
:10300000010E0999CDF87CE087EA010E0599CDF80B
:1030100084E087EA010E2999CDF8D0E087EA010E15
:103020000199CDF8ECE087EA0B0B4F002F9947EAA6
:10303000D4774F40109987EA010A209987EA010E58
:103040000899CDF838E087EA010E1899CDF814E018
:1030500087EA010E2899CDF8A4E087EA010E6F00F7
:103060001A99CDF8E8E047EAD27787EA0C0787EAB1
:1030700001092A9987EA010C1199CDF860C087EA05
:10308000010C2399CDF868C087EA010C0299CDF8AC
:10309000A8C087EA010C570047EAD5777E40199F00
:1030A000CDF8D8C086EA080E86EA070CCDF808E00D
:1030B000049F019986EA070E229FCDF820E086EA58
:1030C000070E0A9FCDF8A0E086EA070E460046EA02
:1030D000D3766640259C1B9FCDF8D4E05B0086EA42
:1030E000040843EAD0730B9C24984B4083EA040104
:1030F00001911C990C9C83EA070E2B9FCDF864E08C
:1031000086EA010ECDF824E083EA070E129FCDF87F
:1031100094E0584083EA070E2C9B139FCDF8DCE027
:1031200086EA030E74402F9BCDF8ACE086EA070ECA
:10313000309ECDF8B0E05F004FEA460E26994EEA89
:10314000D37E47EAD6778EEA050E57402D9D149B15
:10315000794087EA050687EA03022E9D159B1391A5
:1031600027998EEA01010A910D99794023911D99C1
:103170004F402697039F1E998EEA07072497009FCA
:103180008EEA05058EEA03033F688EEA010E069972
:10319000CDF89CE081EA070E009F07997F68CDF883
:1031A0002CE081EA070E4FEA1B57CDF830E04FEADA
:1031B0001A5E47EA0A3ACDF80CA04FEA5C5A4AEA8E
:1031C000C92A4FEA595949EACC2C4FEA853949EACC
:1031D00096490199CDF810C0B6034FEA485C46EA1B
:1031E00095464CEAD02C2507400540EAD82045EA10
:1031F0001118090741EA14111C05CDF8448044EA6E
:103200001238120542EA13321092179A0F9DCDF828
:103210004880D30043EA5578ED0045EA52750E9A8E
:103220001F9BCDF83C80D70C47EA4337DB0C43EAC1
:103230004233029A4FEAD208189A48EA4278D408F0
:10324000029A44EA42741494219C059A4EEA0B3E79
:103250004FEA440B4BEAD27B059ACDF870B04FEAA7
:10326000420B4BEAD47B1A9C089ACDF86CB04FEA1B
:10327000841B4BEA926B089ACDF808B04FEA821B88
:10328000099A4BEA946B199CCDF804B04FEA426B53
:103290004BEAD41BCDF878B04FEA446B099C0A9AEC
:1032A0004BEAD41B139CCDF874B04FEA022B4BEAC7
:1032B000146B0A9ACDF880B04FEA042B319C4BEA8C
:1032C000126B169ACDF87CB04FEA844B4BEA923BD6
:1032D000169ACDF868B04FEA824B4BEA943B0B9AB2
:1032E000CDF864B02AEA0E0B82EA0B0BDDE9032469
:1032F000CDF814B024EA020B0C9C84EA0B0BCDF839
:1033000020B020EA0A0B8BEA0E0BCDF824B0069A07
:10331000049C22EA060B2EEA020E8BEA000B039AAB
:10332000CDF82CB026EA00008EEA060E079ECDF8F6
:1033300034E080EA0A0A2CEA040080EA020E22EA5B
:10334000060026EA0906109ACDF818E086EA0C0E67
:1033500029EA0C0C8CEA040CCDF81CC080EA090C9C
:1033600025EA0200129ECDF838C080EA010C0F98C1
:10337000119CCDF840C020EA060080EA040C27EA40
:103380000500CDF844C080EA020C22EA010221EADD
:1033900008010F98CDF848C081EA070C28EA070712
:1033A000CDF854C087EA050C149DCDF84CC082EAD4
:1033B000080C23EA000224EA0501CDF85CC082EA89
:1033C000060CCDF83CC081EA030C25EA030326EA8B
:1033D0000402CDF858C01B9E1999CDF828A083EAA5
:1033E000000C0198CDF850C020EA060382EA050CD3
:1033F000CDF860C083EA010CCDF830E00299CDF839
:1034000084C01C9F249A329D2B9C21EA07031A99A1
:1034100083EA010C239BCDF888C04FEAC26E4EEAC6
:10342000531ED906339B4FEA157841EA521148EAF8
:103430000318349A1B0F43EA0513299D4FEA82298A
:1034400049EA9559AD0245EA92522A9D0392289A7B
:103450004FEAC53C4CEA524CD20342EA5542259D04
:103460004FEA152A4AEA046A240A44EA05641D9DC3
:103470002494199C25EA000080EA060B26EA040041
:1034800026461F9CCDF86CB026EA040686EA050B9A
:1034900024EA0506019DCDF874B086EA050BCDF847
:1034A00070B01E9D80EA040B02981A9CCDF87CB087
:1034B00025EA000080EA070B27EA0400209FCDF8E8
:1034C00064B024EA070686EA050B3C4627EA0506AF
:1034D000029FCDF878B086EA070BCDF868B080EA95
:1034E000040BCDF880B0359C369E379D279FA008F1
:1034F00040EA867BB008CDF8ACB040EA847B2C98DB
:10350000CDF8A4B06E0A46EAC056400A40EAC55B50
:10351000269DCDF8A8B0680E40EAC71B780ECDF8FE
:1035200004B040EAC51B389D3998CDF808B0EF0DBE
:1035300047EA402430943B9C3A9FC00D40EA452B1B
:10354000A000CDF8C4B040EA977BB800039FCDF847
:1035500010B027EA080B8BEA010B40EA94705C4636
:1035600029EA030B8BEA0E0B5D4622EA070B8BEA76
:10357000080B039FCDF88CB028EA010821EA0A0164
:1035800081EA020B2499CDF894B02AEA020282EA79
:10359000070B88EA0A082CEA0902CDF89C8082EA27
:1035A000030823EA0E032EEA010E8EEA0C0E21EA2E
:1035B0000C0C8CEA090CCDF890C083EA010C05993B
:1035C000109BCDF80CB081EA03091B99CDF898E067
:1035D000CDF8A0C089EA01092D94089B11992E9578
:1035E00089EA0409199C239F149ACDF8BC8083EAC8
:1035F000010E8EEA040E0999129C069B8EEA050EB6
:1036000081EA04051C9C1A9965400F9C63404B405D
:1036100083EA080C0A99139B1D9CCDF8D0C0594031
:10362000079B7D4061405F4653401E9A169C79403F
:10363000249F534083EA070B159A0B9B259F83EA2F
:10364000020C1F9A209B8CEA020C0C9A8CEA070C45
:103650006240269F179C5A4082EA07033593219BBC
:103660000D9A279F63405340229C189A54400E9A0B
:103670007B40289F544084EA07023692019A2B9F90
:10368000029C22EA060888EA07082A9A89EA0809B9
:10369000CDF8AC9024EA0209299A309C89EA020903
:1036A000019A8EEA090ECDF8B0E024EA020E224615
:1036B0008EEA060E27EA000A26EA070620EA020733
:1036C000019A8AEA040A544687EA020A574686EAB9
:1036D000000A85EA0E06504601968CEA040A029E0C
:1036E0003294319C299A339043402A98309724EAA7
:1036F00006067940464020EA0207049822EA0000C4
:1037000080EA040C049A0498654620EA040087EADB
:10371000020C029C349A02956040644682EA060CD0
:103720002A46359D049455402A46369D65402C46D0
:10373000019D8BEA00074FEA4C0B4BEAD57B199DA4
:103740008BEA040B85EA0B052995119D89EA0B0983
:10375000CDF8C49085EA0B092E9DCDF8D49085EA6A
:103760000B09089DCDF8EC9085EA0B09019DCDF879
:1037700044904FEA450949EADC791B9D89EA03092F
:1037800085EA090B109DCDF864B088EA0908CDF8E8
:10379000B88085EA09082D9DCDF8D08085EA090812
:1037A000059DCDF8E88085EA0908CDF840802C9D7C
:1037B0004FEA470848EAD17888EA05080F9D85EA6C
:1037C00008092F9DCDF8149085EA0809069DCDF8CB
:1037D0006C9085EA08091A9DCDF8A89085EA080939
:1037E00086EA0808CDF8F0802B9ECDF8D8904FEAF5
:1037F000410848EAD77888EA0608129E239D8EEA97
:10380000080E85EA0809099DCDF83CE04FEA420E12
:10381000CDF868904EEADA7E85EA08091C9DCDF85D
:103820008C908EEA0C0E85EA080986EA080680EA82
:103830000E0814981E9DCDF8788080EA0E08249812
:10384000CDF8B48080EA0E080798CDF8DC8085EAD0
:103850000E0C019DCDF8BC9080EA0E0E4FEA4A0096
:1038600040EAD27068401D9DCDF8E0E085EA000E88
:10387000309D85EA0008139DCDF8708085EA000828
:10388000039DCDF8748085EA00080A9DCDF8188064
:1038900085EA0008600040EAD3705B00784043EAA4
:1038A000D473259F1F9DCDF81C804B4087EA0304ED
:1038B0000B99269F85EA030B87EA0009CDF87CB0B7
:1038C00081EA03070C99209D85EA000B329DCDF813
:1038D00080B085EA030B159DCDF8C0B085EA030BD7
:1038E000029D169BCDF8E4B085EA000B81EA000842
:1038F000CDF8C8B02B9983EA000B2C98CDF820B0F6
:103900004B004FEA400B4BEAD17B43EAD073279937
:10391000339883EA0A035940249128998BEA020BD1
:1039200081EA0B0125910D99189A80EA0305049804
:10393000594080EA0B0A26911798219958404B402C
:103940000E99339381EA0B032193229B109982EA0B
:103950000B0283EA0B0B009BCDF828B09B6881EA31
:10396000030BCDF82CB00099CB6801F1100B119925
:10397000CDF800B081EA030B0599CDF834B0330DD2
:1039800043EA013B0B0D43EA06364FEA5E530996C4
:1039900043EACC264FEA5C5C4CEACE2C4FEA495312
:1039A000CDF808C043EAD42C4FEA8A33CDF830C0B2
:1039B00043EA954C4FEA0873CDF80CC043EA171C54
:1039C0003F071305CDF850C047EA181CCDF838C0A2
:1039D00043EA103C000540EA123012901998299FE2
:1039E0001A99CDF84CC0C200FB0042EA57721B9FE7
:1039F000019643EA507CFB0CCDF854C0CE0C43EA50
:103A0000413C1C991E9BCDF858C046EA4736CF086A
:103A100047EA4377DB0843EA417C2A990492239AD8
:103A2000CDF85CC04B0043EAD27C5300CDF864C0B3
:103A300043EAD17C2D991D98CDF860C08B0143EAF3
:103A4000906C8301CDF86CC043EA916CCDF868C0EE
:103A500020981F9A2499430643EAD21C5306259ABC
:103A6000CDF870C043EAD01C1302CDF814C043EA6D
:103A7000116C090241EA1261319A2E98CDF878C092
:103A8000930443EA903C4FEA804E2198CDF87CC0E5
:103A90004EEA923E269AC30643EA521CD306CDF85C
:103AA00084C043EA501C3498359ACDF880C0030F87
:103AB00043EA021C130F369ACDF888C043EA001C73
:103AC0002F98CDF88CC0930243EA905C8302CDF826
:103AD00094C043EA925C379A0698CDF890C0D3031D
:103AE00043EA504C069B3298CDF89CC0DB0343EA76
:103AF0005243309A4FEA102C640544EAD9244CEA28
:103B0000026C4FEA1229079ACDF8A0C049EA006971
:103B100038984FEA920C4CEA807CCDF8A4C04FEA6A
:103B2000900C0798089A4CEA807C3998CDF8A8C088
:103B30004FEA502C4CEAC25C089ACDF8ACC04FEA70
:103B4000522C4CEAC05C33980A9ACDF8B0C04FEAC8
:103B5000506C4CEAC21C0A9ACDF8B4C04FEA526CC1
:103B60003B9A4CEAC01C3A98CDF8B8C04FEAD25CF8
:103B70004CEA402C4FEAD0583C98CDF8BCC048EAFB
:103B800042280F9A4FEA800C4CEA927C0F9ACDF8AB
:103B9000C0C04FEA820C019A4CEA907CAD030B98AE
:103BA00045EA9A4522EA0B0A80EA0A0A099A02982B
:103BB000CDF818A020EA020A0D98019A80EA0A0AB4
:103BC000CDF81CA0109824EA020A8AEA0B0A019A8E
:103BD000CDF820A02BEA000A20EA050B8BEA040BA3
:103BE00025EA04048AEA050ACDF82CB084EA020B1F
:103BF000CDF828B0CDF834A00C9D0298099A25EA9A
:103C0000000484EA020A119C0398CDF824A022EA59
:103C100004050C9A24EA000484EA020A20EA020459
:103C20000298CDF830A084EA000A0398049ACDF8EF
:103C300008A085EA000A1298CDF80CA022EA000438
:103C40000E9A1398149D84EA020A159CCDF838A0A8
:103C500024EA0004049884EA050A26EA000412987B
:103C6000CDF83CA084EA000A20EA020022EA070418
:103C7000049ACDF840A084EA060A27EA0606CDF8A1
:103C800048A086EA020ACDF810A080EA070ADDE91A
:103C90001547179E1398CDF850A027EA040282EA30
:103CA000000B25EA060282EA070A26EA070220EA52
:103CB0000500CDF84CA082EA040ACDF844A0DDE965
:103CC0001B5780EA060A059A1A9E1898199CCDF887
:103CD00054A022EA060282EA000A27EA0502CDF889
:103CE00058A082EA040A059ACDF85CA021EA0202F3
:103CF00082EA060A26EA000220EA0E00CDF860A059
:103D000080EA010A0598CDF86CA02EEA010181EA4B
:103D1000000A1E98259ECDF864A082EA0E0E20EAC5
:103D20000702CDF874E082EA050E25EA04021F9D21
:103D3000CDF814E024EA050181EA000E25EA00012D
:103D4000229CCDF870E081EA070E249F2099CDF8DF
:103D500068E082EA050E239D2198CDF878E027EAF5
:103D6000040282EA010E26EA050282EA000A23EA38
:103D70000702CDF87CE082EA040E24EA010221EA7F
:103D80000901CDF880E081EA030E29EA03035F40D0
:103D9000229782EA09072697CDF890E02799289C78
:103DA00021EA060383EA050720EA0402219782EA52
:103DB000010724EA010225EA000325972D982C9D8E
:103DC0002A9982EA0607239783EA04072B9C299AFB
:103DD0002E9E279728EA000320EA0409634089EA17
:103DE0000209289324EA020322EA0C0282EA080468
:103DF0002CEA080888EA00082F982B9483EA0C0321
:103E00002D9320EA0603309C6B40299325EA010399
:103E100021EA0402634026EA050742404F402E9300
:103E200000993D4B2C9224EA000272408B422A9268
:103E30007FF444A83D98069B0360079B4360089B62
:103E40008360099BC3600A9B0361029B43610B9BD8
:103E500083610C9BC3610D9B0362039B43620E9BBA
:103E600083620F9BC362109B0363049B8363119B5C
:103E7000C0F834B0C363129B0364139B4364149B68
:103E80008364159BC364169B0365179B4365189B4E
:103E90008365059BC365199B03661A9B43661B9B41
:103EA00083661C9BC3661D9B03671E9B43671F9B0A
:103EB000C0E91E3A209BC0F88030219BC0F88430B6
:103EC000229BC0F88830239BC0F88C30259BC0F81B
:103ED0009430269BC0F89830279BC0F890E0C0E94A
:103EE0002739289BC0F8A830299BC0F8AC302B9B01
:103EF000C0F8B8302C9BC0F8BC302D9BC0F8C03047
:103F00002E9BC0F8A470C0F8B080C0F8B420C0F8F0
:103F1000C4303FB0BDE8F08F181E01002DE9F04F0E
:103F2000B7B0A0F108099DF8008183460D4692467E
:103F30001E4600F1C0024B4600200021E3E90201C9
:103F40009342FBD1AE424FEAD50428BFCDF80C8096
:103F50003BD3D04648464FF0000E4A465F46CDE977
:103F600001E80023C34699469C461BF8011BA3F1B8
:103F7000200EC3F1200801FA0EFE21FA08F899403C
:103F800008334EEA080E402B4EEA0C0C41EA0909B0
:103F9000EBD150F8083FDDE901E883EA090303604B
:103FA00043680EF1010E83EA0C03A64508F10808E8
:103FB0004360D4D33846761B9146FEF707FFB542DF
:103FC000BB46AA44C5D9DDF80C8004AF79193B463D
:103FD000002203F8012B9942FBD1013D002E44D071
:103FE000711E51443B460AF1FF3A1AF8012F03F8BB
:103FF000012B5145F9D106F1D8030DEB030605F16C
:10400000D8030DEB030506F8C88C15F8C83C43F03F
:10401000800305F8C83C4FF0000E0023BC461E4646
:104020001D461CF8011BA3F12002C3F1200001FA78
:1040300002F221FA00F0994008330243402B46EA8D
:10404000010645EA0205ECD159F8082FD9F80430E9
:104050000EF1010E72406B40A645C9E9002307F13D
:104060000807DAD337B0BDE8F08F05F1D8030DEBC0
:1040700003058DF8108015F8C83C43F08003C8E7AD
:104080002DE9F84FD0F8C8400E46D0F8CC10904635
:104090001A191F4641F10003B24273F100030546AD
:1040A00044D3A64235D04FF0000C08F1FF326346EE
:1040B00014EB0C0441EB0301E00840EA417004F00A
:1040C000070412F801EF55F83010E40005EBC00AC0
:1040D000A4F12009C4F1200B0EFA09F92EFA0BFB0A
:1040E0000EFA04FE81EA0E01DAF804E045F8301019
:1040F00049EA0B048EEA0404CAF80440D5E93241C7
:104100001CF1010CA6EB040043F100036045CFD87D
:10411000804400220023BF1B2744C5E932232846E0
:10412000FEF754FE0024B7422146BCD2002F4ED0E9
:10413000E20804F0070042EA4172C00098F800105B
:10414000A0F12003C0F1200605EBC20401FA03F33D
:1041500021FA06F6814055F832004840616845F87A
:10416000320033434B40012F63602ED007F1FF3CF8
:10417000C44401220026D5E93231D31846EB0101AF
:10418000D80803F0070318F801EF40EA4170DB009C
:1041900005EBC009A3F12001C3F120042EFA04F4B9
:1041A0000EFA01F121430EFA03FE55F83040D9F81A
:1041B0000430013284EA0E0446F100064B40E0452B
:1041C00045F83040C9F80430D5D1D5E932413F191E
:1041D00041F10001C5E93271BDE8F88F30B5D0F882
:1041E000C8404B1ED0F8CC104FEAD40C4CEA417CAE
:1041F00004F00701C900A1F12004C1F1200E00EB79
:10420000CC0502FA04F422FA0EFE8A4050F83C1063
:1042100051406A6840F83C1044EA0E0423F007035A
:10422000624003446A605A6802F10042002400259B
:104230005A60C0E9324530BD002900F082802DE986
:10424000F84F174600F1FF3E00221D460EEB010419
:10425000944626E0EB1A66EB46069B184CEB0606E6
:104260004FEAD30A4AEA467A07EBCA0603F0070385
:10427000D6F8049057F83AB0DB00C3F1200AA3F156
:10428000200609FA0AFA2BFA03F343EA0A0329FA89
:1042900006F633430EF8013F01324CF1000CA645FF
:1042A0004AD0D7E932369A427CEB06099046D1D300
:1042B0009B1A66EB0C06C7E93236B1EB080600EB39
:1042C000080432D04FF0000A4FF0000B3846FEF7DA
:1042D0007DFD4FF0000E601E01E0754527D02EF0E9
:1042E00007014FEADE0339440EF0070CD1F80480D1
:1042F00057F833104FEACC0CCCF12002ACF120037C
:1043000008FA02F221FA0CFC4CEA020C28FA03F338
:104310000EF1010E4CEA030CB64500F801CFDCD1DA
:10432000A5EB0E050023C7E93253BDE8F88FC7E9B6
:1043300032AB2C44761BC9E7D7E9323608F10108C5
:10434000B6E7704713460A46A821FFF799BE00BF9B
:10435000A823FFF771BF00BF704700BF13460A468E
:104360008821FFF78DBE00BF8823FFF765BF00BF20
:10437000704700BF2DE9F04F414CD9B00E46A4FB69
:1043800006141F2100918146882126A8FFF7C6FD4B
:10439000872E4FEAD4152FD905EB051409EBC40479
:1043A0004F460DF58C78039526A8FEF70FFD0020EB
:1043B00024A90D46844655F8080F696807EB0C0ED2
:1043C0000023C3F1200BA3F1200A20FA03F201FA23
:1043D0000BFB21FA0AFA42EA0B02083342EA0A020C
:1043E000402B0EF8012BECD145450CF1080CE2D125
:1043F0008837A742D8D1039D214CA4FB0634E40999
:1044000004EB0414B6EBC40402D159B0BDE8F08F3C
:1044100026A8FEF7DBFC04AACB460DF1900C0DF5A7
:104420008C7896469246A1465CF8084FDCF80470FA
:1044300072460023C3F12006A3F1200024FA03F101
:1044400007FA06F627FA00F0314308330143402B00
:1044500002F8011BEED1C4450EF1080EE4D105EBC4
:1044600005154C460BEBC5035246013B544412F86C
:10447000011B03F8011F9442F9D159B0BDE8F08F38
:10448000F1F0F0F013460A468821FFF7F9BD00BFAE
:104490002DE9F0410F46A2B0062288210646384693
:1044A000FFF79CFE083FFEF791FC0DF18808EE46F1
:1044B00057F8085F7C68F4460023C3F12000A3F19D
:1044C000200125FA03F204FA00F0024324FA01F174
:1044D00008330A43402B0CF8012BEED10EF1080EE5
:1044E000C645E5D106F120016B4653F8042B46F88A
:1044F000042BB142F9D122B0BDE8F0812DE9F041A1
:10450000D6B013460622009206460A4624A8882101
:10451000FFF704FD24A8FEF759FC02AF0DF1880E49
:104520000DF588785EF8085FDEF80440BC4600238D
:10453000C3F12000A3F1200125FA03F204FA00F0F0
:10454000024324FA01F108330A43402B0CF8012BF3
:10455000EED1C64507F10807E4D106F1200102AB10
:1045600053F8042B46F8042BB142F9D156B0BDE8FC
:10457000F08100BF2DE9F04F802187B0082546F279
:10458000F7474FF0000C0A4682462A4B01920CF185
:10459000010903EB890ECDE904C5531E0293531C98
:1045A00049464FF0000BB9460393D0467746019B2E
:1045B000009103EB0B0A08EB8A060BF180443346AB
:1045C000013C08EB84045E461D46296881FB090115
:1045D00000F02AFC54F8042F121A45F8042B226824
:1045E0000136024456452260EFD3029B039A00999C
:1045F0000BF10100824538BF00235A4403EB020B44
:10460000BBF1FF0F04D8049157F8049F0131CEE7A6
:10461000DDE904C5019A013DC2464FEA520206D0C7
:104620000CF102038C46034951F82370ADE707B043
:10463000BDE8F08FF05801002DE9F04F85B0082457
:104640004FF480794FF00108031F039402464C4653
:10465000C3460293284B03EB840A5D460026D346EB
:104660005BF8041D06EB050AB24504F1FF34C1F105
:1046700000093ED906F18047029B0194013F02EBFD
:10468000870702EB8A063C4603EB8A083746164644
:1046900054F8041F3A680A44226057F8042B891A18
:1046A00047F8041C81FB090100F0BEFB444547F8B4
:1046B000040CEDD132460AEB0506FF2E019CCFD942
:1046C000039B013B4FEA450B0393C3D1029B02F5C9
:1046D0007F7B99464AF2FA3459F8041F81FB0401A2
:1046E00000F0A2FBD945C9F80000F5D105B0BDE83E
:1046F000F08F5646B4E700BFF058010070B500F1E6
:10470000FF3C531E02F11F0013F801EF0CF801EFFC
:104710008342F9D10D4602F1200402F5A466214638
:10472000284604F5A07400F0D3F9B44205F580657D
:10473000F5D170BD2DE9F04F1F46164683B0013B01
:10474000421E07F11F0513F8010F02F8010FAB42DB
:10475000F9D10D4607F1200407F5126821462846D5
:1047600004F5107400F0E0F9444505F58065F5D1D5
:1047700007F66F120024154606F57F712346204682
:104780004FF001099646A1F5806242F8040F8A4273
:10479000FBD115F8012FA242904632D3502A30D8CF
:1047A000A24219D904F61F1CBC4422464FEA032A30
:1047B00001931CF8013FA2420AEB030802F1010237
:1047C00003D91CF801BC9B451BD246F8289095F8EC
:1047D00000809045EDD8019B0133042B01F58061E9
:1047E00001D04446CFE7B8F14F0F72460DD808F616
:1047F0001F1A574401E0974204D017F8010F002810
:10480000F9D0012003B0BDE8F08F0020FAE700BF27
:10481000F0B507460E4E0020C2F1030501E06345E6
:1048200015D3947892F801E092F800C0240444EA89
:104830000E2444EA0C04C4F31604B4429CBF47F8A7
:10484000204001300332884205EB020CE7D3F0BD73
:1048500000E07F0038B5041F00F57F7554F8040FA1
:1048600000F0F4FAAC422060F8D138BD38B5041F2E
:1048700000F57F7554F8040F00F0F4FAAC422060A4
:10488000F8D138BD00B5A1F1040CA2F1040E021F4D
:1048900001F57F705CF8043F5EF8041F84450B440B
:1048A00042F8043FF6D15DF804FB00BF00B5A1F16A
:1048B000040CA2F1040E021F01F57F705CF8043FA6
:1048C0005EF8041F8445A3EB010342F8043FF5D1D1
:1048D0005DF804FB031F00F57F7153F8042F5203AA
:1048E0008B421A60F9D17047FFF744BEFFF7A4BEB0
:1048F000F8B50C1F161F051F01F57F7754F8041F2C
:1049000056F8040F81FB000100F08EFABC4245F816
:10491000040FF3D1F8BD00BFF8B50C1F161F051F1B
:1049200001F57F7754F8040F56F8041F00F0A2FA3F
:10493000BC4245F8040FF5D1F8BD00BF0A4B9942BF
:104940000EDCA0F1040C00F57F7001E0844509D075
:104950005CF8043FDA1702EA43029B1A9942F5DC3D
:10496000012070470020704700FC0F00F0B5ADF249
:10497000244D0646684600F0A3FB4FF452716A4688
:1049800035A8FFF7E5FC4FF4527335AA4FF4807158
:104990003046FFF73DFFFF2828D8174F0546A7FBF5
:1049A000031222F0010404EB52041C1BA3EB0403CA
:1049B00035AA1A4408D035A9022CCB5C8DF8D43026
:1049C00002D153788DF8D53035AB1819A8216A4635
:1049D000FFF7BEFCC5F5807106EB850004F1A80366
:1049E00035AAFFF715FF0544FF2DD8D96846FFF714
:1049F000B3FC0DF2244DF0BDABAAAAAAF0B5D7B016
:104A00000C46074622A8FBF793FC2146202222A849
:104A1000FFF7A4FC22A8FBF79FFC88210DEB010205
:104A20006846FFF7A1FC00231D460DF1FF341E462A
:104A300014F8011FA3F12002C3F1200001FA02F2D1
:104A400021FA00F0994008330243402B45EA010562
:104A500046EA0206ECD13B1F07F57F71002243F8BE
:104A6000042F9942FBD10821D92405E01DF801301B
:104A7000A34201F101010FD98829F7D122AA684682
:104A8000FFF772FC9DF800309C424FF002011CD2EF
:104A90009DF801309C42E9D357F8230047F82400E1
:104AA00005F0010252000134C2F101026D08B4F5B3
:104AB000807F45EAC67547F823204FEA5606DBD1CA
:104AC00022A8FFF755FC57B0F0BD0121E4E700BF75
:104AD00001F5A07291F801C00B7843EA0C2305316F
:104AE000C3F30903036011F8033C11F804CC9B01E4
:104AF00043EA9C03C3F30903436011F8023C11F835
:104B000003CC1B0143EA1C13C3F30903836011F8B0
:104B1000013C11F802CC9B0043EA9C138A42C3601B
:104B200000F11000D6D1704730B501F5107C0C783B
:104B300004604B7844EA032404608B7844EA03441D
:104B4000C4F3110404608A7892084260CB7842EA88
:104B5000831242600B7942EA83320931C2F31102B7
:104B6000426011F8053C1B09836011F8045C1030A9
:104B700043EA051340F8083C11F8035C43EA0533A7
:104B8000C3F3110340F8083C11F8035CAD0940F889
:104B9000045C11F802EC45EA8E0540F8045C11F85B
:104BA00001EC45EA8E25C4F50034C2F50032C3F5A8
:104BB0000033C5F500358C4540E9032340F8104C1F
:104BC00040F8045CB3D130BD00F1C00C0B78037029
:104BD0004A68033043EA821300F8033C4B68103103
:104BE000C3F3870300F8023C51F8082C43EA021390
:104BF00000F8023C51F8083CC3F3071300F8013CED
:104C000051F8042C604543EA820300F8013CDDD1F1
:104C1000704700BF2DE9F041884600F58056002717
:104C2000A6F580553C4622462846414605F5806556
:104C3000FFF79CFE0134B542A4B2F4D107F58077AA
:104C4000BFB2B7F5806F05F58056E9D1BDE8F081B8
:104C500010B50446FFF748FE04F58060FFF744FEF8
:104C600004F50060FFF740FE04F54060BDE8104029
:104C7000FFF73ABEF0B5ADF2044D05460F461646B5
:104C8000FFF736FE4FF48064321939196846FFF792
:104C90002FFE04F580646A4629462846FFF7F2FD98
:104CA000B4F5805FF0D10DF2044DF0BDF8B50446C7
:104CB00016460D4600F5805729462046324604F533
:104CC0008064FFF7D7FFBC4205F58055F4D1F8BDED
:104CD00070B504460D4600F5805620462946FFF77C
:104CE0002DFE04F5806410B9B442F6D170BD0120E8
:104CF00070BD00BF10B50446FFF7ACFD04F5806041
:104D0000FFF7A8FD04F50060FFF7A4FD04F540607F
:104D1000BDE81040FFF79EBD10B50446FFF7A6FDA5
:104D200004F58060FFF7A2FD04F50060FFF79EFD2B
:104D300004F54060BDE81040FFF798BDF8B50746A0
:104D40000E46154600242A193119381904F58064D5
:104D5000FFF7ACFDB4F5805FF5D1F8BD10B50446A2
:104D6000FFF7B8FD04F58060FFF7B4FD04F50060BF
:104D7000FFF7B0FD04F54060BDE81040FFF7AABDA5
:104D800010B50446FFF7B0FD04F58060FFF7ACFDF9
:104D900004F50060FFF7A8FD04F54060BDE8104091
:104DA000FFF7A2BD10B50446FFF7A0FD04F5806033
:104DB000FFF79CFD04F50060FFF798FD04F54060E7
:104DC000BDE81040FFF792BDF8B507460E46154600
:104DD00000242A193819314604F58064FFF788FD4C
:104DE000B4F5805FF5D1F8BDF8B507460E46154617
:104DF00000242A193119381904F58064FFF78CFD55
:104E0000B4F5805FF5D1F8BD70B504460D4600F5E8
:104E1000407629462046C034FFF7D6FEB44205F559
:104E20008065F6D170BD00BFC0EBC002034610B470
:104E300000EB8222044C084603EB4232C2FB0430F2
:104E40005DF8044B704700BFFF1F80FF00F5800333
:104E5000DB15C3EB432203EB8222C3EB423318443E
:104E6000704700BF024B03EAE0731844704700BF6D
:104E700001E07F0000F17F030246DB1142F60B40A8
:104E800000FB03F303F500031B16C3F12B00C0174F
:104E900023EA000081B10C490C4B01FB0022C2F552
:104EA0007F1101F5405103EAE1739A4205DD2B2899
:104EB00007D0013070472B2070470028FBD0013805
:104EC00070470020704700BF0018FDFF01E07F0021
:104ED0002DE9F041ADF5084D9CB00DF508441E4696
:104EE000D4F88C700DF508439033FF2F04F18C0437
:104EF0001C6800F2CE8040F67413994240F0C980DD
:104F00000DF5C35105461031684690462246FFF71D
:104F1000F5FB0DF561522B4630320DF5076108A8FF
:104F2000FFF708FC002840F0B4805E490DF50760EB
:104F3000FFF7CEFE0546002840F0AB804FF4A46397
:104F40002246402118A8FFF715FA28A8FBF7F0F928
:104F500028A8402218A9FFF701FA18A80146022242
:104F60000570477028A8FFF7F9F90DF508433A4690
:104F7000D3F8881028A88833FFF7F0F93246414665
:104F800028A8FFF7EBF928A8FBF7E6F928AA4021A3
:104F900018A8FFF7E9F928A8FFF7EAF908A90DF51D
:104FA0008E60FFF72BFD0DF5904069467030FFF7DE
:104FB00031FE0DF50760FFF74BFE0DF590410DF545
:104FC00021500DF5076270313030FFF76FFE0DF59F
:104FD0008E60FFF789FC0DF5C3501030FFF7BEFE61
:104FE0000DF5C3501030FFF7CBFE0DF5C352103254
:104FF00010460DF58E61FFF7E7FE0DF521513031BA
:105000000DF5C35208461032FFF798FE0DF52150FA
:105010003030FFF76FFE0DF521503030FFF7C2FE44
:105020000DF521503030FFF777FE0DF5215130316D
:105030000DF5615230320846FFF7D6FE0DF52151CD
:1050400030315CA8FFF7E0FE28A8FBF771F918A93A
:10505000402228A8FFF782F95CA94FF4407228A8E3
:10506000FFF77CF910AC28A8FBF776F928AA2021D5
:105070002046FFF779F928A8FFF77AF908AB22460E
:1050800001E0A34207D013F801CB12F8011B8C45B5
:10509000F7D04FF0FF3528460DF5084D1CB0BDE8A0
:1050A000F08100BFB2FF010010B584B0069C0294ED
:1050B0000024CDE90044FFF70BFF04B010BD00BF92
:1050C00030B583B004460D46ADF80420FBF7E8F890
:1050D000294620462022FFF735F9022201A9204661
:1050E000FFF730F92046FBF7EFF803B030BD00BF03
:1050F00010B5846882B01CB194F90830002B01DB34
:1051000002B010BD236A002BFAD01A68002AF7D02B
:105110000749097831B11B6A23B101909847236A86
:1051200001981A68002302B0BDE8104000F066BD87
:105130002B6D00202DE9F04782B006461248DDF8BD
:1051400028A00F469146984602F01CFA70B104461A
:10515000656843464A463946304625B1CDF800A039
:10516000A847054638B92468002CF1D10025284607
:1051700002B0BDE8F087B379012BF8D13A46314649
:10518000002000F029FBF2E7A42700202DE9F04FD2
:10519000AD4CAE4E05468BB02046884601F078F9FE
:1051A000C4F8A0508146307028BBA3792089013B08
:1051B000032B64D9636823F07F4323F0FF03002BA4
:1051C00050D06379032B00F01D81208900F01CFE74
:1051D000074600284ED0D0E90FA700F0FFFDBAF136
:1051E000000F00F0918098493846D047337863B378
:1051F0009946002700E00027B9F1C20F29D0DFF857
:105200006892384600F0EAFD3278C32A65D0BF2A9A
:1052100084BFA0223270022123898B4800F094FFC2
:10522000D9F8004020460CF019FC21460246864879
:1052300001F0C6FB4146844800F094FF414682B22B
:10524000284600F069FE96F8009048460BB0BDE88D
:10525000F08F384600F0C2FD96F8009048460BB03B
:10526000BDE8F08FC3232089337000F0CDFD0746E1
:105270000028B0D13378002BE7D09946BCE7294607
:1052800000F020FD0746002844D06379CDF8209037
:105290004022CDE90699ADF8162063BB23896C48FE
:1052A0004522022100F050FFA27A002A40F0A5809A
:1052B00007AB009364480DF11603002206A901F024
:1052C00049FB70B9089B002B2CDA624B8222DFF875
:1052D00098913270C9F8003093E7002232700321B0
:1052E0009AE7BDF81630402B28BF4023ADF81630A2
:1052F000079B0893E7E700F01FFF452203460121C3
:10530000534800F021FFCFE73378002B9DD099461A
:10531000574671E7DFF850914F4BC9F80030A3238F
:1053200033706EE708AA07F1840BBDF816300092BF
:105330004749454803935A46FFF7FCFE002846D1EB
:10534000099009A9404801F0F3FA8246434802F067
:1053500019F9814670B95AE007DD99F80830DB0683
:1053600003D509990B5C2F2B0BD0D9F80090B9F11C
:10537000000F4CD0D9F804000CF070FB8245EBD143
:1053800009990246D9F804000CF048FB0028ECD13A
:10539000A379012B00F0AD80022B00F0C480032B19
:1053A00000F0CF80042B40F0AA80D9F81CA0BAF1FD
:1053B000000F00F0A48008AB254900932248039B0E
:1053C0005A46D04799F80830590600F1DC8096F823
:1053D0000090B9F1000F7FF40FAFA37D1A0754D5E9
:1053E000DFF86C9099F90630002B4EDB99F81630F7
:1053F0001B074AD41A4BA12269E71A49144801F045
:1054000083FA55E70146284600F0BEF9DDE610486C
:10541000842101F073FA0E48842101F06FFA96F8A6
:105420000090B9F1000F7FF4E7AE094807F146019B
:1054300000F098FE80B2A7F84400B8B9C123DFF8A5
:1054400028903370DDE600BFF42600202D6D00208B
:1054500048260020441F0100641F0100A0270020EF
:10546000541F0100FF2600205802002096F80090EB
:10547000B9F1000F7FF4C0AE384600F03DFC96F85D
:10548000009048460BB0BDE8F08F637D089AD911B3
:1054900015D1002AC9D0DFF8FC90013218BF0122D3
:1054A0004023484601F072FAB9F8A420D9F8A810B0
:1054B000402A28BF4022484601F082FAAFE7079B06
:1054C000934221D001320699BDF81630DFF8C4901E
:1054D00030D001222F4801F059FABDF81620B9F852
:1054E000A43093429BD9D9F8A8102A4801F068FA51
:1054F00095E7D9F810A0BAF1000F7FF45CAF8521D1
:10550000244801F0FBF986E7DFF88890B9F8A42079
:1055100093421DD38223204989F8063048460F2242
:1055200001F04EFA7BE7D9F814A0BAF1000F7FF42E
:1055300042AFE4E7B9F8A4209A4294BF00220122C6
:10554000C8E7D9F818A0BAF1000F7FF434AFD6E756
:10555000D21ABDF8163006999A4294BF0022012251
:10556000484601F013FA0799B9F8A430BDF816209F
:105570005B1A9A4228BF1A46D9F8A83048461944FF
:1055800001F01EFA4BE7034A0449484600F024F9AB
:105590001DE700BF48260020441F0100F42600201C
:1055A00010B504460D486160214601F0EDFF94F905
:1055B0000830002B00DB10BD206A0028FBD0036AF6
:1055C000002BF8D00268002AF5D0054BC0E903345F
:1055D0000023BDE81040083000F010BBA0270020D9
:1055E000F150000008B50B4B1A7802B108BD01223A
:1055F00009481A7001F0C2FF084801F0BFFF0849CE
:105600000848FFF7CDFF00F081FCBDE8084000F03E
:105610008BBD00BF2B6D0020A4270020A0270020F9
:10562000741F010008020020014801F0ABBF00BF59
:10563000A027002002F050B82DE9F041054613489C
:1056400001F0A0FF0446E0B1DFF844800F4F0026D0
:1056500001E0246894B1294604F1180000F040FCF0
:105660000028F6D02146404602F068F82146384628
:1056700001F0DAFF24680136002CECD13046BDE899
:10568000F08106463046BDE8F08100BFA827002023
:10569000FC0100202DE9F041054618480F4616464A
:1056A00001F070FF044620B34FF00008294604F1D2
:1056B000180000F015FC18B194F82C30B34205D056
:1056C0002468002CF2D14046BDE8F08132463946CC
:1056D00004F12D000CF078F90028F1D1214608489A
:1056E00002F02CF80548214601F09EFF08F1010860
:1056F000E6E780464046BDE8F08100BFA8270020CD
:10570000FC0100202DE9F04706461D480F4601F038
:1057100039FF044678B3DFF86CA0DFF864904FF0EF
:105720000008DEB9251DBD4208D028460CF096F9C8
:105730003946024628460CF047F948B921465046FA
:1057400001F0FCFF2146484601F06EFF08F1010818
:105750002468002CE5D14046BDE8F087314604F1CD
:10576000180000F0BDFB0028DCD12468002CF5D126
:105770004046BDE8F08780464046BDE8F08700BF60
:10578000A8270020FC010020F8B5054610480E4669
:1057900001F0F8FE0446C0B10027294604F11800C4
:1057A00000F09EFB10B1E38EB34204D02468002CBD
:1057B000F3D13846F8BD2146064801F0BFFF044842
:1057C000214601F031FF0137F0E707463846F8BDC2
:1057D000A8270020FC0100202DE9F84F8B79012B30
:1057E00001D0BDE8F88F92F90630002B1546F8DBA2
:1057F000CB7C5B060C46F4D5D1F8A070002FF0D01E
:10580000D1F86480B8F1000F09D0B8F1010FE8D1E8
:105810008A7A38460B31BDE8F84FFFF73BBFD1F825
:1058200060B091F80AA0D4F85C9059463846FFF76A
:1058300069FF1D4801F066FF064658B3B9F1130F22
:10584000A8BF4FF013094A46B144594604300CF042
:10585000F7F8394606F1180089F8048000F02CFBAF
:10586000524604F10B0186F82CA006F12D000CF035
:10587000E7F80E48A6F83680314601F085FEB16B98
:105880004B1CB363284601F05DF8B36B23F07F43F4
:10589000B363A6E7A323AB7128460549BDE8F84FDB
:1058A000102201F08DB800BFFC010020A8270020C5
:1058B000881F01002DE9F04F83B00F46DDF83080DE
:1058C00093469946FFF7B0FE002800F0A080002420
:1058D00006462546019750E09D4207D34C4505D228
:1058E0002C230BF80430D8F80030013405F1030AFA
:1058F000AA1C01359D4207D34C450DD23C230BF821
:105900000430D8F8003001349A4205D34C4503D214
:105910002F230BF80430013470680CF09FF8D8F88E
:10592000002000EB0A0797422FD801D14C4541D304
:10593000F0687D1CA0B1037893B1D8F80030AB4279
:1059400006D84C4504D23B230BF80430F0680134F0
:105950000CF084F80237D8F800303D189D422ED85C
:105960004C4504D9D8F800302A1B9A4238D8304622
:10597000FFF760FE0646002844D0D8F80030002D1E
:10598000AAD101224FF0020AB4E77368A2EB0A021F
:1059900009F10101002AA8BF9B18091B0BEB0400A9
:1059A0002A4A03F049FB04444C4541D2D8F8003060
:1059B0009F42BDD33E230BF804300134B8E7F268B0
:1059C000DB1B09F10101002BACBFD318131C091B11
:1059D0000BEB04001D4A03F02FFB04444C45C6D9D1
:1059E000019F59462246384600F0EAFF28213846F2
:1059F00000F096FFD8F800304B44C8F8003003B0F0
:105A0000BDE8F08F019FB4B945B9002EF2D14FF037
:105A1000FF33C8F8003003B0BDE8F08F822138466C
:105A200000F06CFF0A490F22384600F0C9FFECE78E
:105A3000019F5546E7E759462246384600F0C0FF29
:105A40002821384600F06CFFDFE700BF9C1F0100F3
:105A5000441F0100014801F09DBC00BF2C02002042
:105A600038B5038804465BB35C2B25D1882901D067
:105A700082292BD100F0F4F8054648BB00F0D2F89B
:105A800050EA010324D0174BC9014FEAC01C41EA78
:105A9000506163458D411FD3BCF57A7F71F10003DE
:105AA0001DD34FF47A72002360460BF0EFF90146E4
:105AB0000D4801F037FA07E000230380032038BDCA
:105AC0000948802101F02EFA5C232380012038BD93
:105AD000064801F05FFCF7E74FF4F051E8E70121D9
